{
  "contractName": "EinsteinStaking",
  "abi": [
    {
      "anonymous": false,
      "inputs": [
        {
          "indexed": false,
          "internalType": "uint256",
          "name": "amount",
          "type": "uint256"
        }
      ],
      "name": "EthFromContractTransferred",
      "type": "event"
    },
    {
      "anonymous": false,
      "inputs": [
        {
          "indexed": true,
          "internalType": "address",
          "name": "from",
          "type": "address"
        },
        {
          "indexed": true,
          "internalType": "address",
          "name": "to",
          "type": "address"
        },
        {
          "indexed": false,
          "internalType": "uint256",
          "name": "amount",
          "type": "uint256"
        }
      ],
      "name": "ExternalTokenTransferred",
      "type": "event"
    },
    {
      "anonymous": false,
      "inputs": [
        {
          "indexed": true,
          "internalType": "address",
          "name": "previousOwner",
          "type": "address"
        },
        {
          "indexed": true,
          "internalType": "address",
          "name": "newOwner",
          "type": "address"
        }
      ],
      "name": "OwnershipTransferred",
      "type": "event"
    },
    {
      "anonymous": false,
      "inputs": [
        {
          "indexed": false,
          "internalType": "address",
          "name": "account",
          "type": "address"
        }
      ],
      "name": "Paused",
      "type": "event"
    },
    {
      "anonymous": false,
      "inputs": [
        {
          "indexed": true,
          "internalType": "address",
          "name": "from",
          "type": "address"
        },
        {
          "indexed": true,
          "internalType": "address",
          "name": "to",
          "type": "address"
        },
        {
          "indexed": false,
          "internalType": "uint256",
          "name": "amount",
          "type": "uint256"
        }
      ],
      "name": "Reward",
      "type": "event"
    },
    {
      "anonymous": false,
      "inputs": [
        {
          "indexed": true,
          "internalType": "address",
          "name": "from",
          "type": "address"
        },
        {
          "indexed": true,
          "internalType": "address",
          "name": "to",
          "type": "address"
        },
        {
          "indexed": false,
          "internalType": "uint256",
          "name": "amount",
          "type": "uint256"
        }
      ],
      "name": "StakedToken",
      "type": "event"
    },
    {
      "anonymous": false,
      "inputs": [
        {
          "indexed": false,
          "internalType": "uint256",
          "name": "newTimeBound",
          "type": "uint256"
        }
      ],
      "name": "TimeBoundChanged",
      "type": "event"
    },
    {
      "anonymous": false,
      "inputs": [
        {
          "indexed": true,
          "internalType": "address",
          "name": "from",
          "type": "address"
        },
        {
          "indexed": true,
          "internalType": "address",
          "name": "to",
          "type": "address"
        },
        {
          "indexed": false,
          "internalType": "uint256",
          "name": "amount",
          "type": "uint256"
        }
      ],
      "name": "UnStakedToken",
      "type": "event"
    },
    {
      "anonymous": false,
      "inputs": [
        {
          "indexed": false,
          "internalType": "address",
          "name": "account",
          "type": "address"
        }
      ],
      "name": "Unpaused",
      "type": "event"
    },
    {
      "anonymous": false,
      "inputs": [
        {
          "indexed": false,
          "internalType": "uint256",
          "name": "interval",
          "type": "uint256"
        }
      ],
      "name": "UpdatedRewardInterval",
      "type": "event"
    },
    {
      "anonymous": false,
      "inputs": [
        {
          "indexed": false,
          "internalType": "uint256",
          "name": "rate",
          "type": "uint256"
        }
      ],
      "name": "UpdatedRewardRate",
      "type": "event"
    },
    {
      "anonymous": false,
      "inputs": [
        {
          "indexed": false,
          "internalType": "contract IERC20",
          "name": "token",
          "type": "address"
        }
      ],
      "name": "UpdatedRewardToken",
      "type": "event"
    },
    {
      "anonymous": false,
      "inputs": [
        {
          "indexed": false,
          "internalType": "uint256",
          "name": "endTime",
          "type": "uint256"
        }
      ],
      "name": "UpdatedStakingEndTime",
      "type": "event"
    },
    {
      "anonymous": false,
      "inputs": [
        {
          "indexed": true,
          "internalType": "address",
          "name": "to",
          "type": "address"
        }
      ],
      "name": "WithdrawRequested",
      "type": "event"
    },
    {
      "anonymous": false,
      "inputs": [
        {
          "indexed": true,
          "internalType": "address",
          "name": "user",
          "type": "address"
        },
        {
          "indexed": false,
          "internalType": "uint256",
          "name": "amount",
          "type": "uint256"
        }
      ],
      "name": "WithdrawnFromStakedBalance",
      "type": "event"
    },
    {
      "inputs": [],
      "name": "_totalStakedAmount",
      "outputs": [
        {
          "internalType": "uint256",
          "name": "",
          "type": "uint256"
        }
      ],
      "stateMutability": "view",
      "type": "function"
    },
    {
      "inputs": [
        {
          "internalType": "address",
          "name": "",
          "type": "address"
        }
      ],
      "name": "claimedReward",
      "outputs": [
        {
          "internalType": "uint256",
          "name": "",
          "type": "uint256"
        }
      ],
      "stateMutability": "view",
      "type": "function"
    },
    {
      "inputs": [],
      "name": "endTime",
      "outputs": [
        {
          "internalType": "uint256",
          "name": "",
          "type": "uint256"
        }
      ],
      "stateMutability": "view",
      "type": "function"
    },
    {
      "inputs": [
        {
          "internalType": "address",
          "name": "",
          "type": "address"
        }
      ],
      "name": "hasStaked",
      "outputs": [
        {
          "internalType": "bool",
          "name": "",
          "type": "bool"
        }
      ],
      "stateMutability": "view",
      "type": "function"
    },
    {
      "inputs": [
        {
          "internalType": "address",
          "name": "",
          "type": "address"
        }
      ],
      "name": "isStaking",
      "outputs": [
        {
          "internalType": "bool",
          "name": "",
          "type": "bool"
        }
      ],
      "stateMutability": "view",
      "type": "function"
    },
    {
      "inputs": [],
      "name": "name",
      "outputs": [
        {
          "internalType": "string",
          "name": "",
          "type": "string"
        }
      ],
      "stateMutability": "view",
      "type": "function"
    },
    {
      "inputs": [
        {
          "internalType": "address",
          "name": "",
          "type": "address"
        }
      ],
      "name": "oldReward",
      "outputs": [
        {
          "internalType": "uint256",
          "name": "",
          "type": "uint256"
        }
      ],
      "stateMutability": "view",
      "type": "function"
    },
    {
      "inputs": [],
      "name": "owner",
      "outputs": [
        {
          "internalType": "address",
          "name": "",
          "type": "address"
        }
      ],
      "stateMutability": "view",
      "type": "function"
    },
    {
      "inputs": [],
      "name": "paused",
      "outputs": [
        {
          "internalType": "bool",
          "name": "",
          "type": "bool"
        }
      ],
      "stateMutability": "view",
      "type": "function"
    },
    {
      "inputs": [],
      "name": "renounceOwnership",
      "outputs": [],
      "stateMutability": "nonpayable",
      "type": "function"
    },
    {
      "inputs": [],
      "name": "rewardInterval",
      "outputs": [
        {
          "internalType": "uint256",
          "name": "",
          "type": "uint256"
        }
      ],
      "stateMutability": "view",
      "type": "function"
    },
    {
      "inputs": [],
      "name": "rewardRate",
      "outputs": [
        {
          "internalType": "uint256",
          "name": "",
          "type": "uint256"
        }
      ],
      "stateMutability": "view",
      "type": "function"
    },
    {
      "inputs": [],
      "name": "rewardToken",
      "outputs": [
        {
          "internalType": "contract IERC20",
          "name": "",
          "type": "address"
        }
      ],
      "stateMutability": "view",
      "type": "function"
    },
    {
      "inputs": [],
      "name": "stakeToken",
      "outputs": [
        {
          "internalType": "contract IERC20",
          "name": "",
          "type": "address"
        }
      ],
      "stateMutability": "view",
      "type": "function"
    },
    {
      "inputs": [
        {
          "internalType": "address",
          "name": "",
          "type": "address"
        }
      ],
      "name": "stakedBalance",
      "outputs": [
        {
          "internalType": "uint256",
          "name": "",
          "type": "uint256"
        }
      ],
      "stateMutability": "view",
      "type": "function"
    },
    {
      "inputs": [
        {
          "internalType": "address",
          "name": "",
          "type": "address"
        },
        {
          "internalType": "uint256",
          "name": "",
          "type": "uint256"
        }
      ],
      "name": "stakedBalances",
      "outputs": [
        {
          "internalType": "uint256",
          "name": "",
          "type": "uint256"
        }
      ],
      "stateMutability": "view",
      "type": "function"
    },
    {
      "inputs": [
        {
          "internalType": "uint256",
          "name": "",
          "type": "uint256"
        }
      ],
      "name": "stakers",
      "outputs": [
        {
          "internalType": "address",
          "name": "",
          "type": "address"
        }
      ],
      "stateMutability": "view",
      "type": "function"
    },
    {
      "inputs": [
        {
          "internalType": "address",
          "name": "",
          "type": "address"
        }
      ],
      "name": "stakingStartTime",
      "outputs": [
        {
          "internalType": "uint256",
          "name": "",
          "type": "uint256"
        }
      ],
      "stateMutability": "view",
      "type": "function"
    },
    {
      "inputs": [
        {
          "internalType": "address",
          "name": "",
          "type": "address"
        },
        {
          "internalType": "uint256",
          "name": "",
          "type": "uint256"
        }
      ],
      "name": "stakingTimestamps",
      "outputs": [
        {
          "internalType": "uint256",
          "name": "",
          "type": "uint256"
        }
      ],
      "stateMutability": "view",
      "type": "function"
    },
    {
      "inputs": [],
      "name": "startTime",
      "outputs": [
        {
          "internalType": "uint256",
          "name": "",
          "type": "uint256"
        }
      ],
      "stateMutability": "view",
      "type": "function"
    },
    {
      "inputs": [],
      "name": "timeBound",
      "outputs": [
        {
          "internalType": "uint256",
          "name": "",
          "type": "uint256"
        }
      ],
      "stateMutability": "view",
      "type": "function"
    },
    {
      "inputs": [
        {
          "internalType": "address",
          "name": "newOwner",
          "type": "address"
        }
      ],
      "name": "transferOwnership",
      "outputs": [],
      "stateMutability": "nonpayable",
      "type": "function"
    },
    {
      "inputs": [
        {
          "internalType": "address",
          "name": "",
          "type": "address"
        }
      ],
      "name": "userStakeCount",
      "outputs": [
        {
          "internalType": "uint256",
          "name": "",
          "type": "uint256"
        }
      ],
      "stateMutability": "view",
      "type": "function"
    },
    {
      "inputs": [
        {
          "internalType": "address",
          "name": "",
          "type": "address"
        }
      ],
      "name": "userTimeBounds",
      "outputs": [
        {
          "internalType": "uint256",
          "name": "",
          "type": "uint256"
        }
      ],
      "stateMutability": "view",
      "type": "function"
    },
    {
      "inputs": [
        {
          "internalType": "contract IERC20",
          "name": "_stakeToken",
          "type": "address"
        },
        {
          "internalType": "contract IERC20",
          "name": "_rewardToken",
          "type": "address"
        },
        {
          "internalType": "uint256",
          "name": "_rewardRate",
          "type": "uint256"
        },
        {
          "internalType": "uint256",
          "name": "_startTime",
          "type": "uint256"
        },
        {
          "internalType": "uint256",
          "name": "_rewardIntervalInSeconds",
          "type": "uint256"
        }
      ],
      "name": "initialize",
      "outputs": [],
      "stateMutability": "nonpayable",
      "type": "function"
    },
    {
      "inputs": [
        {
          "internalType": "uint256",
          "name": "_amount",
          "type": "uint256"
        }
      ],
      "name": "stakeTokenForReward",
      "outputs": [],
      "stateMutability": "nonpayable",
      "type": "function"
    },
    {
      "inputs": [],
      "name": "unStakeToken",
      "outputs": [],
      "stateMutability": "nonpayable",
      "type": "function"
    },
    {
      "inputs": [
        {
          "internalType": "address",
          "name": "_rewardAddress",
          "type": "address"
        }
      ],
      "name": "estimateReward",
      "outputs": [
        {
          "internalType": "uint256",
          "name": "",
          "type": "uint256"
        },
        {
          "internalType": "uint256",
          "name": "",
          "type": "uint256"
        }
      ],
      "stateMutability": "view",
      "type": "function"
    },
    {
      "inputs": [
        {
          "internalType": "address",
          "name": "_rewardAddress",
          "type": "address"
        }
      ],
      "name": "calculateReward",
      "outputs": [
        {
          "internalType": "uint256",
          "name": "",
          "type": "uint256"
        },
        {
          "internalType": "uint256",
          "name": "",
          "type": "uint256"
        }
      ],
      "stateMutability": "view",
      "type": "function"
    },
    {
      "inputs": [
        {
          "internalType": "uint256",
          "name": "amount",
          "type": "uint256"
        }
      ],
      "name": "withdrawFromStakedBalance",
      "outputs": [],
      "stateMutability": "nonpayable",
      "type": "function"
    },
    {
      "inputs": [],
      "name": "getTotalStaked",
      "outputs": [
        {
          "internalType": "uint256",
          "name": "",
          "type": "uint256"
        }
      ],
      "stateMutability": "view",
      "type": "function"
    },
    {
      "inputs": [],
      "name": "claimMyReward",
      "outputs": [],
      "stateMutability": "nonpayable",
      "type": "function"
    },
    {
      "inputs": [
        {
          "internalType": "address",
          "name": "_tokenContract",
          "type": "address"
        },
        {
          "internalType": "uint256",
          "name": "_amount",
          "type": "uint256"
        }
      ],
      "name": "withdrawERC20Token",
      "outputs": [],
      "stateMutability": "nonpayable",
      "type": "function"
    },
    {
      "inputs": [
        {
          "internalType": "uint256",
          "name": "_rewardRate",
          "type": "uint256"
        }
      ],
      "name": "setRewardRate",
      "outputs": [],
      "stateMutability": "nonpayable",
      "type": "function"
    },
    {
      "inputs": [
        {
          "internalType": "contract IERC20",
          "name": "_rewardToken",
          "type": "address"
        }
      ],
      "name": "setRewardToken",
      "outputs": [],
      "stateMutability": "nonpayable",
      "type": "function"
    },
    {
      "inputs": [
        {
          "internalType": "uint256",
          "name": "_rewardInterval",
          "type": "uint256"
        }
      ],
      "name": "setRewardInterval",
      "outputs": [],
      "stateMutability": "nonpayable",
      "type": "function"
    },
    {
      "inputs": [
        {
          "internalType": "uint256",
          "name": "_endTime",
          "type": "uint256"
        }
      ],
      "name": "setStakingEndTime",
      "outputs": [],
      "stateMutability": "nonpayable",
      "type": "function"
    },
    {
      "inputs": [],
      "name": "requestWithdraw",
      "outputs": [],
      "stateMutability": "nonpayable",
      "type": "function"
    },
    {
      "inputs": [
        {
          "internalType": "uint256",
          "name": "_newTimeBound",
          "type": "uint256"
        }
      ],
      "name": "setTimeBound",
      "outputs": [],
      "stateMutability": "nonpayable",
      "type": "function"
    },
    {
      "inputs": [
        {
          "internalType": "address",
          "name": "userAddress",
          "type": "address"
        },
        {
          "internalType": "uint256[]",
          "name": "balances",
          "type": "uint256[]"
        },
        {
          "internalType": "uint256[]",
          "name": "timestamps",
          "type": "uint256[]"
        },
        {
          "internalType": "uint256",
          "name": "_claimedReward",
          "type": "uint256"
        }
      ],
      "name": "upgradeUsers",
      "outputs": [],
      "stateMutability": "nonpayable",
      "type": "function"
    },
    {
      "inputs": [],
      "name": "pause",
      "outputs": [],
      "stateMutability": "nonpayable",
      "type": "function"
    },
    {
      "inputs": [],
      "name": "unpause",
      "outputs": [],
      "stateMutability": "nonpayable",
      "type": "function"
    }
  ],
  "bytecode": "0x608060405234801561001057600080fd5b50612dbf806100206000396000f3fe608060405234801561001057600080fd5b506004361061025e5760003560e01c80638da5cb5b11610146578063c93c8f34116100c3578063e6de48e011610087578063e6de48e01461056d578063ea1cd6fc14610580578063f24651c214610593578063f2fde38b1461059c578063f7c618c1146105af578063fd5e6dd1146105c257600080fd5b8063c93c8f34146104dc578063d1232730146104ff578063d13f90b41461051f578063d82e396214610532578063e3e842131461055a57600080fd5b80639e447fc61161010a5780639e447fc614610485578063b02e64a914610498578063b3423eec146104b8578063bec4de3f146104c0578063bff66fd6146104c957600080fd5b80638da5cb5b1461041b5780638dac264d1461042c5780638eb13e831461043f5780639038eba914610452578063928d81c11461047257600080fd5b806351ed6a30116101df5780636f49712b116101a35780636f49712b146103c3578063715018a6146103e657806378e97925146103ee5780637b0a47ee146103f75780638456cb59146104005780638aee81271461040857600080fd5b806351ed6a301461033b5780635a0b3045146103665780635c975abb1461037957806360217267146103905780636c0b36b7146103b057600080fd5b80633197cbb6116102265780633197cbb6146102ef57806334270799146102f85780633f4ba83a146103185780634aa3f624146103205780634e94cc221461032857600080fd5b806306fdde03146102635780630917e776146102aa5780630b874a2a146102bc5780631e6f3d8a146102c55780631f1c26e0146102e5575b600080fd5b6102946040518060400160405280601281526020017145494e535445494e202d205374616b696e6760701b81525081565b6040516102a19190612a70565b60405180910390f35b60d5545b6040519081526020016102a1565b6102ae60d55481565b6102ae6102d3366004612904565b60db6020526000908152604090205481565b6102ed6105d5565b005b6102ae60cd5481565b6102ae610306366004612904565b60d46020526000908152604090205481565b6102ed610908565b6102ed61093c565b6102ae61033636600461299f565b610da7565b60c95461034e906001600160a01b031681565b6040516001600160a01b0390911681526020016102a1565b6102ed610374366004612a3e565b610dd8565b60655460ff165b60405190151581526020016102a1565b6102ae61039e366004612904565b60d16020526000908152604090205481565b6102ed6103be366004612a3e565b610e61565b6103806103d1366004612904565b60d36020526000908152604090205460ff1681565b6102ed6111db565b6102ae60cc5481565b6102ae60cb5481565b6102ed61120f565b6102ed610416366004612904565b611264565b6033546001600160a01b031661034e565b6102ed61043a366004612a3e565b6112ff565b6102ed61044d366004612a3e565b611381565b6102ae610460366004612904565b60d66020526000908152604090205481565b6102ed61048036600461299f565b611784565b6102ed610493366004612a3e565b6119cf565b6102ae6104a6366004612904565b60da6020526000908152604090205481565b6102ed611a51565b6102ae60ce5481565b6102ed6104d7366004612921565b611aae565b6103806104ea366004612904565b60d26020526000908152604090205460ff1681565b6102ae61050d366004612904565b60d06020526000908152604090205481565b6102ed61052d3660046129ed565b611bce565b610545610540366004612904565b611cea565b604080519283526020830191909152016102a1565b6102ed610568366004612a3e565b611f8c565b61054561057b366004612904565b61200e565b6102ae61058e36600461299f565b612192565b6102ae60d75481565b6102ed6105aa366004612904565b6121ae565b60ca5461034e906001600160a01b031681565b61034e6105d0366004612a3e565b612249565b600260975414156106015760405162461bcd60e51b81526004016105f890612c70565b60405180910390fd5b600260975560655460ff16156106295760405162461bcd60e51b81526004016105f890612b0f565b33600090815260d3602052604090205460ff166106585760405162461bcd60e51b81526004016105f890612ac5565b33600090815260d16020526040902054806106855760405162461bcd60e51b81526004016105f890612b39565b60008061069133611cea565b33600090815260db602090815260408083205460d4909252822054939550919350916106bd9085612ca7565b6106c79190612d00565b9050600081116107195760405162461bcd60e51b815260206004820152601f60248201527f5354414b494e473a2043616c63756c6174656420526577617264207a65726f0060448201526064016105f8565b600160ce54836107299190612cbf565b101561078f5760405162461bcd60e51b815260206004820152602f60248201527f5354414b494e473a2043616e20626520636c61696d6564206f6e6c792061667460448201526e195c881d1a19481a5b9d195c9d985b608a1b60648201526084016105f8565b60ca546040516370a0823160e01b81523060048201526000916001600160a01b0316906370a082319060240160206040518083038186803b1580156107d357600080fd5b505afa1580156107e7573d6000803e3d6000fd5b505050506040513d601f19601f8201168201806040525081019061080b9190612a57565b90508181116108675760405162461bcd60e51b815260206004820152602260248201527f5354414b494e473a204e6f7420456e6f756768205265776172642042616c616e604482015261636560f01b60648201526084016105f8565b60006108738333612273565b9050806108c25760405162461bcd60e51b815260206004820152601c60248201527f5354414b494e473a20436c61696d20526577617264204661696c65640000000060448201526064016105f8565b33600090815260db60205260409020546108dd908490612ca7565b33600090815260db602090815260408083209390935560d09052204290555050600160975550505050565b6033546001600160a01b031633146109325760405162461bcd60e51b81526004016105f890612b70565b61093a6125ed565b565b6002609754141561095f5760405162461bcd60e51b81526004016105f890612c70565b600260975560655460ff16156109875760405162461bcd60e51b81526004016105f890612b0f565b33600090815260d3602052604090205460ff166109b65760405162461bcd60e51b81526004016105f890612ac5565b33600090815260d16020526040902054806109e35760405162461bcd60e51b81526004016105f890612b39565b60c9546040516370a0823160e01b815230600482015282916001600160a01b0316906370a082319060240160206040518083038186803b158015610a2657600080fd5b505afa158015610a3a573d6000803e3d6000fd5b505050506040513d601f19601f82011682018060405250810190610a5e9190612a57565b1015610abc5760405162461bcd60e51b815260206004820152602760248201527f5354414b494e473a204e6f7420656e6f756768207374616b6520746f6b656e2060448201526662616c616e636560c81b60648201526084016105f8565b33600090815260d66020526040902054610ae85760405162461bcd60e51b81526004016105f890612c27565b60d75433600090815260d66020526040902054610b059190612ca7565b421015610b715760405162461bcd60e51b815260206004820152603460248201527f5354414b494e473a2043616e6e6f742077697468647261772077697468696e206044820152731d5b8b589bdd5b99081d1a5b59481c195c9a5bd960621b60648201526084016105f8565b6000610b7c33611cea565b5033600090815260db602090815260408083205460d49092528220549293509091610ba79084612ca7565b610bb19190612d00565b90506000610bbf8233612273565b905080610c0e5760405162461bcd60e51b815260206004820152601f60248201527f5354414b494e473a20526577617264207472616e73666572206661696c65640060448201526064016105f8565b33600090815260db6020526040902054610c29908390612ca7565b33600081815260db60205260408082209390935560c954925163a9059cbb60e01b8152600481019290925260248201879052916001600160a01b03169063a9059cbb90604401602060405180830381600087803b158015610c8957600080fd5b505af1158015610c9d573d6000803e3d6000fd5b505050506040513d601f19601f82011682018060405250810190610cc191906129cb565b90508015610d8b57604051858152339030907fd7fb47fa4e2139ce389b813482edd42355bff50041bcde88f27ee31c6a59d3459060200160405180910390a38460d56000828254610d129190612d00565b909155505033600090815260d16020908152604080832083905560d38252808320805460ff1916905560d0825280832083905560d99091528120610d5591612831565b33600090815260d860205260408120610d6d91612831565b33600090815260da6020908152604080832083905560db9091528120555b505033600090815260d660205260408120555050600160975550565b60d96020528160005260406000208181548110610dc357600080fd5b90600052602060002001600091509150505481565b6033546001600160a01b03163314610e025760405162461bcd60e51b81526004016105f890612b70565b60655460ff1615610e255760405162461bcd60e51b81526004016105f890612b0f565b60cd8190556040518181527f30ae143296022e367f0566c628126a765e12c4bd359161db4e5c357bf6abe75b906020015b60405180910390a150565b60026097541415610e845760405162461bcd60e51b81526004016105f890612c70565b600260975560655460ff1615610eac5760405162461bcd60e51b81526004016105f890612b0f565b33600090815260d3602052604090205460ff16610edb5760405162461bcd60e51b81526004016105f890612ac5565b60008111610f2b5760405162461bcd60e51b815260206004820152601a60248201527f5354414b494e473a2043616e6e6f74207769746864726177203000000000000060448201526064016105f8565b33600090815260d66020526040902054610f575760405162461bcd60e51b81526004016105f890612c27565b60d75433600090815260d66020526040902054610f749190612ca7565b421015610fdb5760405162461bcd60e51b815260206004820152602f60248201527f5354414b494e473a2043616e6e6f742077697468647261772077697468696e2060448201526e1a5b9d195c9d985b081c195c9a5bd9608a1b60648201526084016105f8565b6000610fe633611cea565b509050600081118015611073575060ca546040516370a0823160e01b81523060048201526001600160a01b03909116906370a082319060240160206040518083038186803b15801561103757600080fd5b505afa15801561104b573d6000803e3d6000fd5b505050506040513d601f19601f8201168201806040525081019061106f9190612a57565b8111155b156110a45733600090815260d46020526040902054611093908290612ca7565b33600090815260d460205260409020555b33600090815260d160205260409020546110be9083612680565b33600090815260d1602052604081209190915560d580548492906110e3908490612d00565b909155505060c95460405163a9059cbb60e01b8152336004820152602481018490526000916001600160a01b03169063a9059cbb90604401602060405180830381600087803b15801561113557600080fd5b505af1158015611149573d6000803e3d6000fd5b505050506040513d601f19601f8201168201806040525081019061116d91906129cb565b90508061118c5760405162461bcd60e51b81526004016105f890612ba5565b60405183815233907f2fd67e4d9178cd6fc7cf779c114b9301259947d11058d873e95be107128fe1ec9060200160405180910390a2505033600090815260d66020526040812055506001609755565b6033546001600160a01b031633146112055760405162461bcd60e51b81526004016105f890612b70565b61093a600061268c565b6033546001600160a01b031633146112395760405162461bcd60e51b81526004016105f890612b70565b60655460ff161561125c5760405162461bcd60e51b81526004016105f890612b0f565b61093a6126de565b6033546001600160a01b0316331461128e5760405162461bcd60e51b81526004016105f890612b70565b60655460ff16156112b15760405162461bcd60e51b81526004016105f890612b0f565b60ca80546001600160a01b0319166001600160a01b0383169081179091556040519081527f3d7342c6174ff0c2d83c1931f221dcd598ced2fba24194c5966987ac5945609990602001610e56565b6033546001600160a01b031633146113295760405162461bcd60e51b81526004016105f890612b70565b60655460ff161561134c5760405162461bcd60e51b81526004016105f890612b0f565b60d78190556040518181527f045b55e401a8da9067e12712489d51816fc2b790681a4e3dc9a4e9ee3e30ea0190602001610e56565b600260975414156113a45760405162461bcd60e51b81526004016105f890612c70565b600260975560655460ff16156113cc5760405162461bcd60e51b81526004016105f890612b0f565b60cc5442101561142a5760405162461bcd60e51b8152602060048201526024808201527f5354414b494e473a20537461727420426c6f636b20686173206e6f742072656160448201526318da195960e21b60648201526084016105f8565b60cd54156114795760cd544211156114795760405162461bcd60e51b815260206004820152601260248201527114d51052d25391ce8812185cc8195b99195960721b60448201526064016105f8565b600081116114995760405162461bcd60e51b81526004016105f890612b39565b60c9546040516370a0823160e01b815233600482015282916001600160a01b0316906370a082319060240160206040518083038186803b1580156114dc57600080fd5b505afa1580156114f0573d6000803e3d6000fd5b505050506040513d601f19601f820116820180604052508101906115149190612a57565b10156115745760405162461bcd60e51b815260206004820152602960248201527f5354414b494e473a20496e73756666696369656e74207374616b6520746f6b656044820152686e2062616c616e636560b81b60648201526084016105f8565b33600090815260d2602052604090205460ff166115ce5760cf80546001810182556000919091527facb8d954e2cfef495862221e91bd7523613cf8808827cb33edfe4904cc51bf290180546001600160a01b031916331790555b33600081815260d360205260c9546040516323b872dd60e01b815260048101939093523060248401526044830184905290916001600160a01b03909116906323b872dd90606401602060405180830381600087803b15801561162f57600080fd5b505af1158015611643573d6000803e3d6000fd5b505050506040513d601f19601f8201168201806040525081019061166791906129cb565b9050801561177b57604051828152309033907f572917b843dd6132f2ef4857991377e173c54cb472655bad280701adbd372dc49060200160405180910390a333600081815260d9602090815260408083208054600181810183559185528385200187905584845260d883528184208054918201815584528284204291015592825260d1905220546116f9908390612ca7565b33600090815260d1602090815260408083209390935560da905290812080549161172283612d17565b91905055508160d560008282546117399190612ca7565b909155505033600090815260d06020908152604080832042905560d382528083208054600160ff19918216811790925560d29093529220805490911690911790555b50506001609755565b6033546001600160a01b031633146117ae5760405162461bcd60e51b81526004016105f890612b70565b6001600160a01b0382166118125760405162461bcd60e51b815260206004820152602560248201527f5354414b494e473a20416464726573732063616e74206265207a65726f206164604482015264647265737360d81b60648201526084016105f8565b600081116118625760405162461bcd60e51b815260206004820152601b60248201527f5354414b494e473a20616d6f756e742063616e6e6f742062652030000000000060448201526064016105f8565b6040516370a0823160e01b8152306004820152829082906001600160a01b038316906370a082319060240160206040518083038186803b1580156118a557600080fd5b505afa1580156118b9573d6000803e3d6000fd5b505050506040513d601f19601f820116820180604052508101906118dd9190612a57565b116118e757600080fd5b60405163a9059cbb60e01b8152336004820152602481018390526000906001600160a01b0383169063a9059cbb90604401602060405180830381600087803b15801561193257600080fd5b505af1158015611946573d6000803e3d6000fd5b505050506040513d601f19601f8201168201806040525081019061196a91906129cb565b9050806119895760405162461bcd60e51b81526004016105f890612ba5565b60405183815233906001600160a01b038616907f7079859245539ac894631367548c7bd452de88ccf2d234c85e1c8a535fb4c17e9060200160405180910390a350505050565b6033546001600160a01b031633146119f95760405162461bcd60e51b81526004016105f890612b70565b60655460ff1615611a1c5760405162461bcd60e51b81526004016105f890612b0f565b60cb8190556040518181527f41d572b85ff5bd3d708f2b2d7e23f1998dfd747960e0a2cdc99ee37aacb3e2a790602001610e56565b60655460ff1615611a745760405162461bcd60e51b81526004016105f890612b0f565b33600081815260d66020526040808220429055517f82d5fce39f90fafd1445cdc4e4851843dfe8406dbba6112d2eeb23c6c860b4909190a2565b6033546001600160a01b03163314611ad85760405162461bcd60e51b81526004016105f890612b70565b60005b8351811015611bac576001600160a01b038516600090815260d9602052604090208451859083908110611b1057611b10612d48565b6020908102919091018101518254600181018455600093845282842001556001600160a01b038716825260d89052604090208351849083908110611b5657611b56612d48565b6020908102919091018101518254600181018455600093845282842001556001600160a01b038716825260da905260408120805491611b9483612d17565b91905055508080611ba490612d17565b915050611adb565b506001600160a01b03909316600090815260db60205260409020929092555050565b600054610100900460ff16611be95760005460ff1615611bed565b303b155b611c505760405162461bcd60e51b815260206004820152602e60248201527f496e697469616c697a61626c653a20636f6e747261637420697320616c72656160448201526d191e481a5b9a5d1a585b1a5e995960921b60648201526084016105f8565b600054610100900460ff16158015611c72576000805461ffff19166101011790555b60c980546001600160a01b038089166001600160a01b03199283161790925560ca80549288169290911691909117905560cb84905560cc83905560ce82905562093a8060d755611cc0612736565b611cc861276d565b611cd061279d565b8015611ce2576000805461ff00191690555b505050505050565b600080808080805b6001600160a01b038716600090815260da6020526040902054811015611f805760ce546001600160a01b038816600090815260d860205260409020805483908110611d3f57611d3f612d48565b9060005260206000200154611d549190612ca7565b4210611f69576001600160a01b038716600090815260d9602052604090208054670de0b6b3a7640000919083908110611d8f57611d8f612d48565b9060005260206000200154611da49190612cbf565b611dae9085612ca7565b93508315611f645760cd5415611e5a5760cd54421115611e1a576001600160a01b038716600090815260d8602052604090208054611e13919083908110611df757611df7612d48565b906000526020600020015460cd5461268090919063ffffffff16565b9150611e9d565b6001600160a01b038716600090815260d860205260409020805482908110611e4457611e44612d48565b906000526020600020015442611e139190612d00565b6001600160a01b038716600090815260d860205260409020805482908110611e8457611e84612d48565b906000526020600020015442611e9a9190612d00565b91505b6000611eba6007611eb4601881603c8189826127cb565b906127cb565b9050600060348260cb54611ece9190612ce1565b611ed89190612cbf565b905060648682611ef085670de0b6b3a7640000612ce1565b670de0b6b3a764000060d554611f069190612cbf565b611f118b6064612ce1565b611f1b9190612cbf565b611f2d90670de0b6b3a7640000612ce1565b611f379190612ca7565b611f419190612ca7565b611f4b9190612ce1565b611f559190612cbf565b611f5f9086612ca7565b945050505b611f6e565b611f80565b80611f7881612d17565b915050611cf2565b50909590945092505050565b6033546001600160a01b03163314611fb65760405162461bcd60e51b81526004016105f890612b70565b60655460ff1615611fd95760405162461bcd60e51b81526004016105f890612b0f565b60ce8190556040518181527f4b07a0fa695517833b7f3548dee672595cf33c17bb47b194f93b920d17c71bf890602001610e56565b6001600160a01b038116600090815260d160205260408120548190819061203e90670de0b6b3a764000090612cbf565b905060008082156121875760cd54156120aa5760cd54421115612087576001600160a01b038616600090815260d0602052604090205460cd5461208091612680565b90506120d0565b6001600160a01b038616600090815260d060205260409020546120809042612d00565b6001600160a01b038616600090815260d060205260409020546120cd9042612d00565b90505b60006120e76007611eb4601881603c8188826127cb565b9050600060348260cb546120fb9190612ce1565b6121059190612cbf565b90506064858261211d85670de0b6b3a7640000612ce1565b670de0b6b3a764000060d5546121339190612cbf565b61213e8a6064612ce1565b6121489190612cbf565b61215a90670de0b6b3a7640000612ce1565b6121649190612ca7565b61216e9190612ca7565b6121789190612ce1565b6121829190612cbf565b935050505b909590945092505050565b60d86020528160005260406000208181548110610dc357600080fd5b6033546001600160a01b031633146121d85760405162461bcd60e51b81526004016105f890612b70565b6001600160a01b03811661223d5760405162461bcd60e51b815260206004820152602660248201527f4f776e61626c653a206e6577206f776e657220697320746865207a65726f206160448201526564647265737360d01b60648201526084016105f8565b6122468161268c565b50565b60cf818154811061225957600080fd5b6000918252602090912001546001600160a01b0316905081565b60006001600160a01b0382166122cb5760405162461bcd60e51b815260206004820152601f60248201527f5354414b494e473a20416464726573732063616e6e6f74206265207a65726f0060448201526064016105f8565b60ca546040516370a0823160e01b815230600482015284916001600160a01b0316906370a082319060240160206040518083038186803b15801561230e57600080fd5b505afa158015612322573d6000803e3d6000fd5b505050506040513d601f19601f820116820180604052508101906123469190612a57565b101561239f5760405162461bcd60e51b815260206004820152602260248201527f5354414b494e473a204e6f7420656e6f756768207265776172642062616c616e604482015261636560f01b60648201526084016105f8565b60ca546040516370a0823160e01b815230600482015260009185916001600160a01b03909116906370a082319060240160206040518083038186803b1580156123e757600080fd5b505afa1580156123fb573d6000803e3d6000fd5b505050506040513d601f19601f8201168201806040525081019061241f9190612a57565b11801561242c5750600084115b156125e65760ca5460c9546001600160a01b03908116911614156124dd5760d55460ca546040516370a0823160e01b815230600482015286916001600160a01b0316906370a082319060240160206040518083038186803b15801561249057600080fd5b505afa1580156124a4573d6000803e3d6000fd5b505050506040513d601f19601f820116820180604052508101906124c89190612a57565b6124d29190612d00565b10156124dd57600093505b83156125e65760ca5460405163a9059cbb60e01b81526001600160a01b03858116600483015260248201879052600092169063a9059cbb90604401602060405180830381600087803b15801561253257600080fd5b505af1158015612546573d6000803e3d6000fd5b505050506040513d601f19601f8201168201806040525081019061256a91906129cb565b9050806125895760405162461bcd60e51b81526004016105f890612ba5565b6001600160a01b038416600081815260d46020526040808220919091555130907f6b053894d8fdbdcc936dd753e21291f0c48e68ef12306eb39a63a374147ba4bd906125d89089815260200190565b60405180910390a360019150505b9392505050565b60655460ff166126365760405162461bcd60e51b815260206004820152601460248201527314185d5cd8589b194e881b9bdd081c185d5cd95960621b60448201526064016105f8565b6065805460ff191690557f5db9ee0a495bf2e6ff9c91a7834c1ba4fdd244a5e8aa4e537bd38aeae4b073aa335b6040516001600160a01b03909116815260200160405180910390a1565b60006125e68284612d00565b603380546001600160a01b038381166001600160a01b0319831681179093556040519116919082907f8be0079c531659141344cd1fd0a4f28419497f9722a3daafe3b4186f6b6457e090600090a35050565b60655460ff16156127015760405162461bcd60e51b81526004016105f890612b0f565b6065805460ff191660011790557f62e78cea01bee320cd4e420270b5ea74000d11b0c9f74754ebdbfc544b05a2586126633390565b600054610100900460ff1661275d5760405162461bcd60e51b81526004016105f890612bdc565b6127656127d7565b61093a6127fe565b600054610100900460ff166127945760405162461bcd60e51b81526004016105f890612bdc565b61093a3361268c565b600054610100900460ff166127c45760405162461bcd60e51b81526004016105f890612bdc565b6001609755565b60006125e68284612cbf565b600054610100900460ff1661093a5760405162461bcd60e51b81526004016105f890612bdc565b600054610100900460ff166128255760405162461bcd60e51b81526004016105f890612bdc565b6065805460ff19169055565b508054600082559060005260206000209081019061224691905b8082111561285f576000815560010161284b565b5090565b600082601f83011261287457600080fd5b8135602067ffffffffffffffff8083111561289157612891612d5e565b8260051b604051601f19603f830116810181811084821117156128b6576128b6612d5e565b604052848152838101925086840182880185018910156128d557600080fd5b600092505b858310156128f85780358452928401926001929092019184016128da565b50979650505050505050565b60006020828403121561291657600080fd5b81356125e681612d74565b6000806000806080858703121561293757600080fd5b843561294281612d74565b9350602085013567ffffffffffffffff8082111561295f57600080fd5b61296b88838901612863565b9450604087013591508082111561298157600080fd5b5061298e87828801612863565b949793965093946060013593505050565b600080604083850312156129b257600080fd5b82356129bd81612d74565b946020939093013593505050565b6000602082840312156129dd57600080fd5b815180151581146125e657600080fd5b600080600080600060a08688031215612a0557600080fd5b8535612a1081612d74565b94506020860135612a2081612d74565b94979496505050506040830135926060810135926080909101359150565b600060208284031215612a5057600080fd5b5035919050565b600060208284031215612a6957600080fd5b5051919050565b600060208083528351808285015260005b81811015612a9d57858101830151858201604001528201612a81565b81811115612aaf576000604083870101525b50601f01601f1916929092016040019392505050565b6020808252602a908201527f5354414b494e473a204e6f207374616b656420746f6b656e2062616c616e636560408201526920617661696c61626c6560b01b606082015260800190565b60208082526010908201526f14185d5cd8589b194e881c185d5cd95960821b604082015260600190565b6020808252601c908201527f5354414b494e473a2042616c616e63652063616e6e6f74206265203000000000604082015260600190565b6020808252818101527f4f776e61626c653a2063616c6c6572206973206e6f7420746865206f776e6572604082015260600190565b60208082526018908201527f5354414b494e473a205472616e73666572204661696c65640000000000000000604082015260600190565b6020808252602b908201527f496e697469616c697a61626c653a20636f6e7472616374206973206e6f74206960408201526a6e697469616c697a696e6760a81b606082015260800190565b60208082526029908201527f5354414b494e473a2052657175657374207769746864726177206265666f726560408201526820776974686472617760b81b606082015260800190565b6020808252601f908201527f5265656e7472616e637947756172643a207265656e7472616e742063616c6c00604082015260600190565b60008219821115612cba57612cba612d32565b500190565b600082612cdc57634e487b7160e01b600052601260045260246000fd5b500490565b6000816000190483118215151615612cfb57612cfb612d32565b500290565b600082821015612d1257612d12612d32565b500390565b6000600019821415612d2b57612d2b612d32565b5060010190565b634e487b7160e01b600052601160045260246000fd5b634e487b7160e01b600052603260045260246000fd5b634e487b7160e01b600052604160045260246000fd5b6001600160a01b038116811461224657600080fdfea264697066735822122075b18c6962e179ce0a6ac9db37dc6ffcb2ea3a573284db4159b6528bd162c2cb64736f6c63430008070033",
  "immutableReferences": {},
  "source": "//SPDX-License-Identifier: UNLICENSED\npragma solidity ^0.8.7;\n\nimport \"@openzeppelin/contracts-upgradeable/proxy/utils/Initializable.sol\";\nimport \"@openzeppelin/contracts-upgradeable/utils/ContextUpgradeable.sol\";\nimport \"@openzeppelin/contracts-upgradeable/security/ReentrancyGuardUpgradeable.sol\";\nimport \"@openzeppelin/contracts-upgradeable/access/OwnableUpgradeable.sol\";\nimport \"@openzeppelin/contracts-upgradeable/security/PausableUpgradeable.sol\";\nimport \"@openzeppelin/contracts-upgradeable/utils/math/SafeMathUpgradeable.sol\";\n\ninterface IERC20 {\n    function totalSupply() external view returns (uint256);\n\n    function balanceOf(address account) external view returns (uint256);\n\n    function allowance(address owner, address spender)\n        external\n        view\n        returns (uint256);\n\n    function transfer(address recipient, uint256 amount)\n        external\n        returns (bool);\n\n    function approve(address spender, uint256 amount) external returns (bool);\n\n    function transferFrom(\n        address sender,\n        address recipient,\n        uint256 amount\n    ) external returns (bool);\n\n    event Transfer(address indexed from, address indexed to, uint256 value);\n    event Approval(\n        address indexed owner,\n        address indexed spender,\n        uint256 value\n    );\n}\n\ncontract EinsteinStaking is\n    OwnableUpgradeable,\n    PausableUpgradeable,\n    ReentrancyGuardUpgradeable\n{\n    using SafeMathUpgradeable for uint256;\n    string public constant name = \"EINSTEIN - Staking\";\n\n    IERC20 public stakeToken; // Token which users stake to get reward\n    IERC20 public rewardToken; // holds token address which we are giving it as reward\n    uint256 public rewardRate; // APR of the staking\n    uint256 public startTime; // Block number after which reward should start\n    uint256 public endTime; // End time of staking\n    uint256 public rewardInterval; // Time difference for calculating reward, eg., Day, Months, Years, etc.,\n    address[] public stakers;\n    mapping(address => uint256) public stakingStartTime; // to manage the time when the user started the staking\n    mapping(address => uint256) public stakedBalance; // to manage the staking of token A  and distibue the profit as token B\n    mapping(address => bool) public hasStaked;\n    mapping(address => bool) public isStaking;\n    mapping(address => uint256) public oldReward; // Stores the old reward\n    uint256 public _totalStakedAmount; // Total amount of tokens that users have staked\n    mapping(address => uint256) public userTimeBounds; // mapping stores the withdraw time request\n    uint256 public timeBound;\n\n    // Upgraded state variables\n    mapping(address => uint256[]) public stakingTimestamps;\n    mapping(address => uint256[]) public stakedBalances;\n    mapping(address => uint256) public userStakeCount;\n    mapping(address => uint256) public claimedReward; // Accumulated reward for each user which is subtracted every time user withdraws\n\n    event Reward(address indexed from, address indexed to, uint256 amount);\n    event StakedToken(address indexed from, address indexed to, uint256 amount);\n    event UnStakedToken(\n        address indexed from,\n        address indexed to,\n        uint256 amount\n    );\n    event WithdrawnFromStakedBalance(address indexed user, uint256 amount);\n    event ExternalTokenTransferred(\n        address indexed from,\n        address indexed to,\n        uint256 amount\n    );\n    event EthFromContractTransferred(uint256 amount);\n    event UpdatedRewardRate(uint256 rate);\n    event UpdatedRewardToken(IERC20 token);\n    event UpdatedRewardInterval(uint256 interval);\n    event UpdatedStakingEndTime(uint256 endTime);\n    event WithdrawRequested(address indexed to);\n    event TimeBoundChanged(uint256 newTimeBound);\n\n    function initialize(\n        IERC20 _stakeToken,\n        IERC20 _rewardToken,\n        uint256 _rewardRate,\n        uint256 _startTime,\n        uint256 _rewardIntervalInSeconds\n    ) public virtual initializer {\n        stakeToken = _stakeToken;\n        rewardToken = _rewardToken;\n        rewardRate = _rewardRate;\n        startTime = _startTime;\n        rewardInterval = _rewardIntervalInSeconds;\n        timeBound = 604800;\n        // initializing\n        __Pausable_init();\n        __Ownable_init_unchained();\n        __ReentrancyGuard_init_unchained();\n    }\n\n    //    constructor() initializer {}\n\n    /* Stakes Tokens (Deposit): An investor will deposit the stakeToken into the smart contracts\n    to starting earning rewards.\n\n    Core Thing: Transfer the stakeToken from the investor's wallet to this smart contract. */\n    function stakeTokenForReward(uint256 _amount)\n        external\n        virtual\n        nonReentrant\n        whenNotPaused\n    {\n        require(\n            block.timestamp >= startTime,\n            \"STAKING: Start Block has not reached\"\n        );\n        if (endTime > 0)\n            require(block.timestamp <= endTime, \"STAKING: Has ended\");\n        require(_amount > 0, \"STAKING: Balance cannot be 0\"); // Staking amount cannot be zero\n        require(\n            stakeToken.balanceOf(msg.sender) >= _amount,\n            \"STAKING: Insufficient stake token balance\"\n        ); // Checking msg.sender balance\n\n        // add user to stakers array *only* if they haven't staked already\n        if (!hasStaked[msg.sender]) {\n            stakers.push(msg.sender);\n        }\n        if (isStaking[msg.sender]) {\n            // (uint256 oldR, ) = estimateReward(msg.sender);\n            // oldReward[msg.sender] = oldReward[msg.sender] + oldR;\n        }\n\n        bool transferStatus = stakeToken.transferFrom(\n            msg.sender,\n            address(this),\n            _amount\n        );\n        if (transferStatus) {\n            emit StakedToken(msg.sender, address(this), _amount);\n            stakedBalances[msg.sender].push(_amount); // update user staking balance\n            stakingTimestamps[msg.sender].push(block.timestamp); // update user staking start time for this stake amount\n            stakedBalance[msg.sender] = stakedBalance[msg.sender] + _amount; // update user staked balance\n            userStakeCount[msg.sender]++; // increment user stake count\n            _totalStakedAmount += _amount; // update Contract Staking balance\n            stakingStartTime[msg.sender] = block.timestamp; // save the time when they started staking\n            // update staking status\n            isStaking[msg.sender] = true;\n            hasStaked[msg.sender] = true;\n        }\n    }\n\n    function unStakeToken() external virtual nonReentrant whenNotPaused {\n        require(\n            isStaking[msg.sender],\n            \"STAKING: No staked token balance available\"\n        );\n        uint256 balance = stakedBalance[msg.sender];\n        require(balance > 0, \"STAKING: Balance cannot be 0\");\n        require(\n            stakeToken.balanceOf(address(this)) >= balance,\n            \"STAKING: Not enough stake token balance\"\n        );\n        require(\n            userTimeBounds[msg.sender] > 0,\n            \"STAKING: Request withdraw before withdraw\"\n        );\n        require(\n            block.timestamp >= (userTimeBounds[msg.sender] + timeBound),\n            \"STAKING: Cannot withdraw within un-bound time period\"\n        );\n\n        (uint256 reward, ) = calculateReward(msg.sender);\n        uint256 totalReward = reward +\n            oldReward[msg.sender] -\n            claimedReward[msg.sender];\n        bool status = SendRewardTo(totalReward, msg.sender); // Checks if the contract has enough tokens to reward or not\n        require(status, \"STAKING: Reward transfer failed\");\n        claimedReward[msg.sender] = claimedReward[msg.sender] + totalReward;\n\n        // unstaking of staked tokens\n        bool transferStatus = stakeToken.transfer(msg.sender, balance);\n        if (transferStatus) {\n            emit UnStakedToken(address(this), msg.sender, balance);\n            _totalStakedAmount -= balance;\n            stakedBalance[msg.sender] = 0; // reset staking balance\n            isStaking[msg.sender] = false; // update staking status and stakingStartTime (restore to zero)\n            stakingStartTime[msg.sender] = 0;\n            delete stakedBalances[msg.sender]; // update user staking balance\n            delete stakingTimestamps[msg.sender]; // update user staking start time for this stake amount\n            userStakeCount[msg.sender] = 0; // increment user stake count\n            claimedReward[msg.sender] = 0; // reset user claimed reward\n        }\n        userTimeBounds[msg.sender] = 0;\n    }\n\n    /* @dev check if the reward token is same as the staking token\n    If staking token and reward token is same then -\n    Contract should always contain more or equal tokens than staked tokens\n    Because staked tokens are the locked amount that staker can unstake any time */\n    function SendRewardTo(uint256 calculatedReward, address _toAddress)\n        internal\n        virtual\n        returns (bool)\n    {\n        require(_toAddress != address(0), \"STAKING: Address cannot be zero\");\n        require(\n            rewardToken.balanceOf(address(this)) >= calculatedReward,\n            \"STAKING: Not enough reward balance\"\n        );\n\n        bool successStatus = false;\n        if (\n            rewardToken.balanceOf(address(this)) > calculatedReward &&\n            calculatedReward > 0\n        ) {\n            if (stakeToken == rewardToken) {\n                if (\n                    (rewardToken.balanceOf(address(this)) - calculatedReward) <\n                    _totalStakedAmount\n                ) {\n                    calculatedReward = 0;\n                }\n            }\n            if (calculatedReward > 0) {\n                bool transferStatus = rewardToken.transfer(\n                    _toAddress,\n                    calculatedReward\n                );\n                require(transferStatus, \"STAKING: Transfer Failed\");\n                oldReward[_toAddress] = 0;\n                emit Reward(address(this), _toAddress, calculatedReward);\n                successStatus = true;\n            }\n        }\n        return successStatus;\n    }\n\n    /*\n    @dev calculateReward() function returns the reward of the caller of this function\n    */\n    function estimateReward(address _rewardAddress)\n        public\n        view\n        returns (uint256, uint256)\n    {\n        uint256 balances = stakedBalance[_rewardAddress] / 10**18;\n        uint256 rewards = 0;\n        uint256 timeDifferences;\n        if (balances > 0) {\n            if (endTime > 0) {\n                if (block.timestamp > endTime) {\n                    timeDifferences = endTime.sub(\n                        stakingStartTime[_rewardAddress]\n                    );\n                } else {\n                    timeDifferences =\n                        block.timestamp -\n                        stakingStartTime[_rewardAddress];\n                }\n            } else {\n                timeDifferences =\n                    block.timestamp -\n                    stakingStartTime[_rewardAddress];\n            }\n            /* reward calculation\n            Reward  = ((Total staked amount / User Staked Amount * 100) + timeFactor + Reward Rate (APY)) * User Staked Amount / 100\n            */\n            uint256 timeFactor = timeDifferences.div(60).div(60).div(24).div(7); //consider week\n            uint256 apyFactorInWei = (rewardRate * timeFactor) / 52;\n            rewards = ((((((balances * 100) / (_totalStakedAmount / 10**18)) *\n                (10**18)) +\n                (timeFactor * (10**18)) +\n                apyFactorInWei) * balances) / 100);\n        }\n        return (rewards, timeDifferences);\n    }\n\n    /*\n    @dev calculateReward() function returns the reward of the caller of this function\n    */\n    function calculateReward(address _rewardAddress)\n        public\n        view\n        returns (uint256, uint256)\n    {\n        uint256 balances;\n        uint256 rewards = 0;\n        uint256 timeDifferences;\n        for (uint256 i = 0; i < userStakeCount[_rewardAddress]; i++) {\n            if (\n                block.timestamp >=\n                stakingTimestamps[_rewardAddress][i] + rewardInterval\n            ) {\n                balances =\n                    balances +\n                    stakedBalances[_rewardAddress][i] /\n                    10**18;\n                if (balances > 0) {\n                    if (endTime > 0) {\n                        if (block.timestamp > endTime) {\n                            timeDifferences = endTime.sub(\n                                stakingTimestamps[_rewardAddress][i]\n                            );\n                        } else {\n                            timeDifferences =\n                                block.timestamp -\n                                stakingTimestamps[_rewardAddress][i];\n                        }\n                    } else {\n                        timeDifferences =\n                            block.timestamp -\n                            stakingTimestamps[_rewardAddress][i];\n                    }\n                    uint256 timeFactor = timeDifferences\n                        .div(60)\n                        .div(60)\n                        .div(24)\n                        .div(7); //consider week\n                    uint256 apyFactorInWei = (rewardRate * timeFactor) / 52;\n                    rewards =\n                        rewards +\n                        ((((((balances * 100) / (_totalStakedAmount / 10**18)) *\n                            (10**18)) +\n                            (timeFactor * (10**18)) +\n                            apyFactorInWei) * balances) / 100);\n                }\n            } else {\n                break;\n            }\n        }\n        return (rewards, timeDifferences);\n    }\n\n    /*\n    @dev Users withdraw balance from the staked balance, reduced directly from the staked balance\n    */\n    function withdrawFromStakedBalance(uint256 amount)\n        external\n        virtual\n        nonReentrant\n        whenNotPaused\n    {\n        require(\n            isStaking[msg.sender],\n            \"STAKING: No staked token balance available\"\n        );\n        require(amount > 0, \"STAKING: Cannot withdraw 0\");\n        require(\n            userTimeBounds[msg.sender] > 0,\n            \"STAKING: Request withdraw before withdraw\"\n        );\n        require(\n            block.timestamp >= (userTimeBounds[msg.sender] + timeBound),\n            \"STAKING: Cannot withdraw within interval period\"\n        );\n        (uint256 oldRewardAmount, ) = calculateReward(msg.sender);\n        if (\n            oldRewardAmount > 0 &&\n            oldRewardAmount <= rewardToken.balanceOf(address(this))\n        ) {\n            oldReward[msg.sender] = oldReward[msg.sender] + oldRewardAmount;\n        }\n        stakedBalance[msg.sender] = stakedBalance[msg.sender].sub(amount);\n        _totalStakedAmount -= amount;\n        bool transferStatus = stakeToken.transfer(msg.sender, amount);\n        require(transferStatus, \"STAKING: Transfer Failed\");\n        emit WithdrawnFromStakedBalance(msg.sender, amount);\n        userTimeBounds[msg.sender] = 0;\n    }\n\n    /* @dev returns the total staked tokens\n    and it is independent of the total tokens the contract keeps\n    */\n    function getTotalStaked() external view returns (uint256) {\n        return _totalStakedAmount;\n    }\n\n    /*\n    @dev function used to claim only the reward for the caller of the method\n    */\n    function claimMyReward() external nonReentrant whenNotPaused {\n        require(\n            isStaking[msg.sender],\n            \"STAKING: No staked token balance available\"\n        );\n        uint256 balance = stakedBalance[msg.sender];\n        require(balance > 0, \"STAKING: Balance cannot be 0\");\n        (uint256 reward, uint256 timeDifferences) = calculateReward(msg.sender);\n        uint256 totalReward = reward +\n            oldReward[msg.sender] -\n            claimedReward[msg.sender];\n        require(totalReward > 0, \"STAKING: Calculated Reward zero\");\n        require(\n            timeDifferences / rewardInterval >= 1,\n            \"STAKING: Can be claimed only after the interval\"\n        );\n        uint256 rewardTokens = rewardToken.balanceOf(address(this));\n        require(\n            rewardTokens > totalReward,\n            \"STAKING: Not Enough Reward Balance\"\n        );\n        bool rewardSuccessStatus = SendRewardTo(totalReward, msg.sender);\n        //stakingStartTime (set to current time)\n        require(rewardSuccessStatus, \"STAKING: Claim Reward Failed\");\n        claimedReward[msg.sender] = claimedReward[msg.sender] + totalReward;\n        stakingStartTime[msg.sender] = block.timestamp;\n    }\n\n    function withdrawERC20Token(address _tokenContract, uint256 _amount)\n        external\n        virtual\n        onlyOwner\n    {\n        require(\n            _tokenContract != address(0),\n            \"STAKING: Address cant be zero address\"\n        ); // 0 address validation\n        require(_amount > 0, \"STAKING: amount cannot be 0\"); // require amount greater than 0\n        IERC20 tokenContract = IERC20(_tokenContract);\n        require(tokenContract.balanceOf(address(this)) > _amount);\n        bool transferStatus = tokenContract.transfer(msg.sender, _amount);\n        require(transferStatus, \"STAKING: Transfer Failed\");\n        emit ExternalTokenTransferred(_tokenContract, msg.sender, _amount);\n    }\n\n    function getBalance() internal view returns (uint256) {\n        return address(this).balance;\n    }\n\n    /*\n    @dev setting reward rate in weiAmount\n    */\n    function setRewardRate(uint256 _rewardRate)\n        external\n        virtual\n        onlyOwner\n        whenNotPaused\n    {\n        rewardRate = _rewardRate;\n        emit UpdatedRewardRate(_rewardRate);\n    }\n\n    /*\n    @dev setting reward token address\n    */\n    function setRewardToken(IERC20 _rewardToken)\n        external\n        virtual\n        onlyOwner\n        whenNotPaused\n    {\n        rewardToken = _rewardToken;\n        emit UpdatedRewardToken(rewardToken);\n    }\n\n    /*\n    @dev setting reward interval\n    */\n    function setRewardInterval(uint256 _rewardInterval)\n        external\n        virtual\n        onlyOwner\n        whenNotPaused\n    {\n        rewardInterval = _rewardInterval;\n        emit UpdatedRewardInterval(rewardInterval);\n    }\n\n    /*\n    @dev setting staking end time\n    */\n    function setStakingEndTime(uint256 _endTime)\n        external\n        virtual\n        onlyOwner\n        whenNotPaused\n    {\n        endTime = _endTime;\n        emit UpdatedStakingEndTime(_endTime);\n    }\n\n    /*\n    @Dev user request for a withdraw\n*/\n    function requestWithdraw() external virtual whenNotPaused {\n        userTimeBounds[msg.sender] = block.timestamp;\n        emit WithdrawRequested(msg.sender);\n    }\n\n    function setTimeBound(uint256 _newTimeBound)\n        external\n        virtual\n        onlyOwner\n        whenNotPaused\n    {\n        timeBound = _newTimeBound;\n        emit TimeBoundChanged(timeBound);\n    }\n\n    function upgradeUsers(\n        address userAddress,\n        uint256[] memory balances,\n        uint256[] memory timestamps,\n        uint256 _claimedReward\n    ) public onlyOwner {\n        for (uint256 i = 0; i < balances.length; i++) {\n            stakedBalances[userAddress].push(balances[i]);\n            stakingTimestamps[userAddress].push(timestamps[i]);\n            userStakeCount[userAddress]++;\n        }\n        claimedReward[userAddress] = _claimedReward;\n    }\n\n    function pause() external onlyOwner whenNotPaused {\n        _pause();\n    }\n\n    function unpause() external onlyOwner {\n        _unpause();\n    }\n}\n",
  "sourcePath": "/home/mohsin/Desktop/pdog-staking/contracts/EinsteinStaking.sol",
  "compiler": {
    "name": "solc",
    "version": "0.8.7+commit.e28d00a7.Emscripten.clang"
  },
  "schemaVersion": "3.4.3",
  "updatedAt": "2021-12-29T14:56:35.208Z",
  "devdoc": {
    "kind": "dev",
    "methods": {
      "owner()": {
        "details": "Returns the address of the current owner."
      },
      "paused()": {
        "details": "Returns true if the contract is paused, and false otherwise."
      },
      "renounceOwnership()": {
        "details": "Leaves the contract without owner. It will not be possible to call `onlyOwner` functions anymore. Can only be called by the current owner. NOTE: Renouncing ownership will leave the contract without an owner, thereby removing any functionality that is only available to the owner."
      },
      "transferOwnership(address)": {
        "details": "Transfers ownership of the contract to a new account (`newOwner`). Can only be called by the current owner."
      }
    },
    "version": 1
  },
  "userdoc": {
    "kind": "user",
    "methods": {},
    "version": 1
  }
}